:100000000C945D000C9485000C9485000C94850084
:100010000C9485000C9485000C9485000C9485004C
:100020000C9485000C9485000C9485000C94A70218
:100030000C9485000C9485000C9485000C9485002C
:100040000C9405020C9485000C9475020C944F02DC
:100050000C9485000C9485000C9485000C9485000C
:100060000C9485000C9485000000000024002700FB
:100070002A0000000000250028002B0004040404CE
:100080000404040402020202020203030303030342
:10009000010204081020408001020408102001021F
:1000A00004081020000000080002010000030407FB
:1000B0000000000000000000630311241FBECFEF0A
:1000C000D8E0DEBFCDBF11E0A0E0B1E0E4E6FCE0A7
:1000D00002C005900D92AC31B107D9F721E0ACE137
:1000E000B1E001C01D92AB3EB207E1F710E0CDE5F3
:1000F000D0E004C02197FE010E942A06CC35D1072A
:10010000C9F70E94C0030C9430060C94000090E0E4
:10011000FC01EC55FF4F2491FC01E057FF4F349157
:10012000FC01E458FF4FE491EE23C9F0222339F09B
:10013000233001F1A8F4213019F1223029F1F0E047
:10014000EE0FFF1FEE58FF4FA591B4918FB7F894B3
:10015000EC91611126C030953E233C938FBF0895EA
:100160002730A9F02830C9F0243049F78091800069
:100170008F7D03C0809180008F7780938000DFCFD8
:1001800084B58F7784BDDBCF84B58F7DFBCF809125
:10019000B0008F778093B000D2CF8091B0008F7D78
:1001A000F9CF3E2BDACF3FB7F8948091220190919E
:1001B0002301A0912401B091250126B5A89B05C07B
:1001C0002F3F19F00196A11DB11D3FBFBA2FA92FD6
:1001D000982F8827BC01CD01620F711D811D911DD3
:1001E00042E0660F771F881F991F4A95D1F708953F
:1001F000AF92BF92CF92DF92EF92FF920F931F9335
:10020000CF93DF936C017B018B01040F151FEB0172
:100210005E01AE18BF08C017D10759F06991D60129
:10022000ED91FC910190F081E02DC6010995892B9B
:1002300079F7C501DF91CF911F910F91FF90EF905A
:10024000DF90CF90BF90AF900895FC01538D448D07
:10025000252F30E0842F90E0821B930B541710F071
:10026000CF96089501970895FC01918D828D98177E
:1002700061F0A28DAE0FBF2FB11D5D968C91928D56
:100280009F5F9F73928F90E008958FEF9FEF089587
:10029000FC01918D828D981731F0828DE80FF11D50
:1002A000858D90E008958FEF9FEF0895FC01918D6B
:1002B000228D892F90E0805C9F4F821B91098F7364
:1002C0009927089586E291E00E94560121E0892B4A
:1002D00009F420E0822F089580E090E0892B29F036
:1002E0000E94620181110C9400000895FC01A48D0C
:1002F000A80FB92FB11DA35ABF4F2C91848D90E048
:1003000001968F739927848FA689B7892C93A0892A
:10031000B1898C91837080648C93938D848D9813B4
:1003200006C00288F389E02D80818F7D8083089547
:10033000EF92FF920F931F93CF93DF93EC0181E035
:10034000888F9B8D8C8D98131AC0E889F9898081DC
:1003500085FF15C09FB7F894EE89FF896083E8890F
:10036000F98980818370806480839FBF81E090E001
:10037000DF91CF911F910F91FF90EF900895F62E8E
:100380000B8D10E00F5F1F4F0F731127E02E8C8D28
:100390008E110CC00FB607FCFACFE889F98980816D
:1003A00085FFF5CFCE010E947601F1CFEB8DEC0FEA
:1003B000FD2FF11DE35AFF4FF0829FB7F8940B8F8A
:1003C000EA89FB8980818062CFCFCF93DF93EC01F4
:1003D000888D8823B9F0AA89BB89E889F9898C912D
:1003E00085FD03C0808186FD0DC00FB607FCF7CFE9
:1003F0008C9185FFF2CF808185FFEDCFCE010E94E9
:100400007601E9CFDF91CF9108951F920F920FB639
:100410000F9211242F933F938F939F93AF93BF938A
:1004200080911E0190911F01A0912001B0912101A6
:1004300030911D0123E0230F2D3758F50196A11DA2
:10044000B11D20931D0180931E0190931F01A09365
:100450002001B09321018091220190912301A0916C
:100460002401B09125010196A11DB11D80932201A7
:1004700090932301A0932401B0932501BF91AF91E4
:100480009F918F913F912F910F900FBE0F901F90D2
:10049000189526E8230F0296A11DB11DD2CF1F92F9
:1004A0000F920FB60F9211242F933F934F935F93A8
:1004B0006F937F938F939F93AF93BF93EF93FF932C
:1004C00086E291E00E947601FF91EF91BF91AF919A
:1004D0009F918F917F916F915F914F913F912F915C
:1004E0000F900FBE0F901F9018951F920F920FB68E
:1004F0000F9211242F938F939F93EF93FF93E0918B
:100500003601F09137018081E0913C01F0913D018D
:1005100082FD1BC0908180913F018F5F8F7320917E
:100520004001821741F0E0913F01F0E0EA5DFE4FAB
:10053000958F80933F01FF91EF919F918F912F9124
:100540000F900FBE0F901F9018958081F4CF1F92CF
:100550000F920FB60F9211242F933F934F935F93F7
:100560006F937F938F939F93AF93BF93CF93DF93BB
:10057000EF93FF9380911C01C091E701D0E087FFCA
:1005800024C0109285001092840080911C018F5F1E
:1005900080931C0180911C01082E000C990B8C1774
:1005A0009D0724F480911C018C30C4F1809184005B
:1005B00090918500049680349C4908F47AC080911B
:1005C000840090918500049676C080911C01082ECD
:1005D000000C990B8C179D07C4F6E0911C018E2F1F
:1005E000EE0F990BFC01EE0FFF1FE80FF91FED5303
:1005F000FE4F808186FFC9CFE0911C018E2FEE0F48
:10060000990BFC01EE0FFF1FE80FF91FED53FE4F92
:10061000808160E08F730E948700B7CF20918400B3
:1006200030918500E0911C018E2FEE0F990BFC019B
:10063000EE0FFF1FE80FF91FED53FE4F81819281EE
:10064000820F931F9093890080938800E0911C0192
:100650008E2FEE0F990BFC01EE0FFF1FE80FF91F15
:10066000ED53FE4F808186FF11C0E0911C018E2F5B
:10067000EE0F990BFC01EE0FFF1FE80FF91FED5372
:10068000FE4F808161E08F730E948700FF91EF91A0
:10069000DF91CF91BF91AF919F918F917F916F919A
:1006A0005F914F913F912F910F900FBE0F901F9030
:1006B000189580E49CE990938900809388008FEFDF
:1006C00080931C01E3CF109229011092280188EE3B
:1006D00093E0A0E0B0E080932A0190932B01A093D7
:1006E0002C01B0932D018AE091E090932701809333
:1006F000260185EC90E0909333018093320184ECE5
:1007000090E0909335018093340180EC90E09093D9
:1007100037018093360181EC90E09093390180930A
:10072000380182EC90E090933B0180933A0186EC93
:1007300090E090933D0180933C0110923F01109214
:10074000400110924101109242018091E7018C30EA
:1007500098F491E0980F9093E7018093E80190E07E
:10076000FC01EE0FFF1FE80FF91FED53FE4F88EB62
:100770009BE09283818308958FEF8093E801089531
:10078000CF93DF93CDB7DEB7A1970FB6F894DEBF56
:100790000FBECDBF789484B5826084BD84B581607E
:1007A00084BD85B5826085BD85B5816085BD80913C
:1007B0006E00816080936E001092810080918100B4
:1007C00082608093810080918100816080938100AC
:1007D000809180008160809380008091B10084606E
:1007E0008093B1008091B00081608093B0008091CF
:1007F0007A00846080937A0080917A00826080938E
:100800007A0080917A00816080937A0080917A00EA
:10081000806880937A001092C100E0913601F091D7
:10082000370182E08083E0913201F0913301108240
:10083000E0913401F091350180E1808310923E0116
:10084000E0913A01F0913B0186E08083E09138012C
:10085000F0913901808180618083E0913801F091CD
:100860003901808188608083E0913801F0913901FD
:10087000808180688083E0913801F0913901808126
:100880008F7D80838091E8018C3008F068C0E9E9B1
:10089000F0E02491E5E8F0E08491882399F090E07D
:1008A000880F991FFC01E859FF4FA591B491FC01F5
:1008B000EE58FF4F859194918FB7F894EC91E22B0D
:1008C000EC938FBF8091E801282F30E0F901EE0F03
:1008D000FF1FE20FF31FED53FE4F9081907C996054
:1008E00090831092E9011092EA012CE0622F0E949D
:1008F0001E06829FB001112430E020E0AB01420FC0
:10090000531FFA01EE0FFF1FE40FF51FED53FE4FCB
:10091000908196FD16C02F5F3F4F2C30310571F747
:1009200081110FC01092800082E0809381001092AC
:10093000850010928400B19A80916F00826080934C
:100940006F00E091E8018E2F90E0FC01EE0FFF1F99
:10095000E80FF91FED53FE4F8081806480831AE019
:10096000812E912CA12CB12CB0E02B2EB1E03B2E8E
:10097000F101019111911F0168010032F2E01F079E
:10098000DCF58091E901E8E8CE2ED12CC81AD10817
:1009900087FDD394CC0CDD1CCC0CDD1C0D2C000C85
:1009A000EE08FF088091EA0128E532E0281B3109B2
:1009B00087FD3395220F331F220F331F032E000CA8
:1009C000440B550B2C193D094E095F09D801053B15
:1009D000110514F0A4EBB0E0B7FF02C0B0E0A0E056
:1009E0000E94E50524EB30E040E050E00E94BB05AA
:1009F000C20ED31EE41EF51E2091E8012C3088F5AE
:100A00008091E90148E850E0481B510987FD539562
:100A1000CA01880F991F880F991FC816D9068CF034
:100A20008091EA01E8E5F2E0E81BF10987FDF39522
:100A3000CF01880F991F880F991FC816D9060CF48B
:100A4000C6010297880F991F4FB7F89430E0F9015B
:100A5000EE0FFF1FE20FF31FED53FE4F92838183D2
:100A60004FBF6801110FEE08FF08F7FE6EC06DE280
:100A700086E291E00E94980122273327A9012C19D0
:100A80003D094E095F0919A2CE0181967C01CA0178
:100A9000B901A50194010E94ED05605DF701629323
:100AA0007F01211531054105510589F7E114F10454
:100AB00061F001900020E9F73197AF014E195F090D
:100AC000B70186E291E00E94F80042E050E068E160
:100AD00071E086E291E00E94F8000E94D3002B01B1
:100AE0003C0188EEC82E83E0D82EE12CF12C0E9428
:100AF000D3006419750986099709683E734081051A
:100B00009105A8F3F1E0CF1AD108E108F10828EE29
:100B1000420E23E0521E611C711CC114D104E10479
:100B2000F10429F786E091E08215930509F020CFC2
:100B3000E0E0F0E0EF2B09F417CF0E946201882378
:100B400009F412CF0E9400000FCFA701960119A24D
:100B5000CE0181967C01CA01B901A50194010E94D0
:100B6000ED05605DF70162937F01211531054105B7
:100B7000510589F79BCF052E97FB1EF400940E9428
:100B8000D20557FD07D00E94ED0507FC03D04EF4B7
:100B90000C94D20550954095309521953F4F4F4F7D
:100BA0005F4F089590958095709561957F4F8F4F19
:100BB0009F4F08950E940F06A59F900DB49F900D22
:100BC000A49F800D911D11240895B7FF0C94DA05A0
:100BD0000E94DA05821B930B0895A1E21A2EAA1B2C
:100BE000BB1BFD010DC0AA1FBB1FEE1FFF1FA217DD
:100BF000B307E407F50720F0A21BB30BE40BF50BDA
:100C0000661F771F881F991F1A9469F76095709562
:100C1000809590959B01AC01BD01CF010895A29FE5
:100C2000B001B39FC001A39F700D811D1124911DC0
:100C3000B29F700D811D1124911D0895991B79E0BB
:100C400004C0991F961708F0961B881F7A95C9F75C
:100C500080950895EE0FFF1F0590F491E02D099403
:040C6000F894FFCF36
:100C64000A005A007800000000009801F8002501ED
:0C0C7400E5015601340148010D0A0000A2
:00000001FF
